{
  "_format": "hh-sol-artifact-1",
  "contractName": "Ballot",
  "sourceName": "contracts/Ballot.sol",
  "abi": [
    {
      "inputs": [
        {
          "internalType": "bytes32[]",
          "name": "proposalNames",
          "type": "bytes32[]"
        }
      ],
      "stateMutability": "nonpayable",
      "type": "constructor"
    },
    {
      "inputs": [],
      "name": "chairperson",
      "outputs": [
        {
          "internalType": "address",
          "name": "",
          "type": "address"
        }
      ],
      "stateMutability": "view",
      "type": "function"
    },
    {
      "inputs": [
        {
          "internalType": "address",
          "name": "to",
          "type": "address"
        }
      ],
      "name": "delegate",
      "outputs": [],
      "stateMutability": "nonpayable",
      "type": "function"
    },
    {
      "inputs": [],
      "name": "getAllProposals",
      "outputs": [
        {
          "components": [
            {
              "internalType": "bytes32",
              "name": "name",
              "type": "bytes32"
            },
            {
              "internalType": "uint256",
              "name": "voteCount",
              "type": "uint256"
            }
          ],
          "internalType": "struct Ballot.Proposal[]",
          "name": "",
          "type": "tuple[]"
        }
      ],
      "stateMutability": "view",
      "type": "function"
    },
    {
      "inputs": [
        {
          "internalType": "address",
          "name": "voter",
          "type": "address"
        }
      ],
      "name": "giveRightToVote",
      "outputs": [],
      "stateMutability": "nonpayable",
      "type": "function"
    },
    {
      "inputs": [
        {
          "internalType": "uint256",
          "name": "",
          "type": "uint256"
        }
      ],
      "name": "proposals",
      "outputs": [
        {
          "internalType": "bytes32",
          "name": "name",
          "type": "bytes32"
        },
        {
          "internalType": "uint256",
          "name": "voteCount",
          "type": "uint256"
        }
      ],
      "stateMutability": "view",
      "type": "function"
    },
    {
      "inputs": [
        {
          "internalType": "uint256",
          "name": "proposal",
          "type": "uint256"
        }
      ],
      "name": "vote",
      "outputs": [],
      "stateMutability": "nonpayable",
      "type": "function"
    },
    {
      "inputs": [
        {
          "internalType": "address",
          "name": "",
          "type": "address"
        }
      ],
      "name": "voters",
      "outputs": [
        {
          "internalType": "uint256",
          "name": "weight",
          "type": "uint256"
        },
        {
          "internalType": "bool",
          "name": "voted",
          "type": "bool"
        },
        {
          "internalType": "address",
          "name": "delegate",
          "type": "address"
        },
        {
          "internalType": "uint256",
          "name": "vote",
          "type": "uint256"
        }
      ],
      "stateMutability": "view",
      "type": "function"
    },
    {
      "inputs": [],
      "name": "winnerName",
      "outputs": [
        {
          "internalType": "bytes32",
          "name": "winnerName_",
          "type": "bytes32"
        }
      ],
      "stateMutability": "view",
      "type": "function"
    },
    {
      "inputs": [],
      "name": "winningProposal",
      "outputs": [
        {
          "internalType": "uint256",
          "name": "winningProposal_",
          "type": "uint256"
        }
      ],
      "stateMutability": "view",
      "type": "function"
    }
  ],
  "bytecode": "0x60806040523480156200001157600080fd5b50604051620016ba380380620016ba833981810160405281019062000037919062000342565b336000806101000a81548173ffffffffffffffffffffffffffffffffffffffff021916908373ffffffffffffffffffffffffffffffffffffffff16021790555060018060008060009054906101000a900473ffffffffffffffffffffffffffffffffffffffff1673ffffffffffffffffffffffffffffffffffffffff1673ffffffffffffffffffffffffffffffffffffffff1681526020019081526020016000206000018190555060005b81518110156200017657600260405180604001604052808484815181106200010f576200010e62000393565b5b60200260200101518152602001600081525090806001815401808255809150506001900390600052602060002090600202016000909190919091506000820151816000015560208201518160010155505080806200016d90620003fb565b915050620000e2565b505062000448565b6000604051905090565b600080fd5b600080fd5b600080fd5b6000601f19601f8301169050919050565b7f4e487b7100000000000000000000000000000000000000000000000000000000600052604160045260246000fd5b620001e28262000197565b810181811067ffffffffffffffff82111715620002045762000203620001a8565b5b80604052505050565b6000620002196200017e565b9050620002278282620001d7565b919050565b600067ffffffffffffffff8211156200024a5762000249620001a8565b5b602082029050602081019050919050565b600080fd5b6000819050919050565b620002758162000260565b81146200028157600080fd5b50565b60008151905062000295816200026a565b92915050565b6000620002b2620002ac846200022c565b6200020d565b90508083825260208201905060208402830185811115620002d857620002d76200025b565b5b835b81811015620003055780620002f0888262000284565b845260208401935050602081019050620002da565b5050509392505050565b600082601f83011262000327576200032662000192565b5b8151620003398482602086016200029b565b91505092915050565b6000602082840312156200035b576200035a62000188565b5b600082015167ffffffffffffffff8111156200037c576200037b6200018d565b5b6200038a848285016200030f565b91505092915050565b7f4e487b7100000000000000000000000000000000000000000000000000000000600052603260045260246000fd5b7f4e487b7100000000000000000000000000000000000000000000000000000000600052601160045260246000fd5b6000819050919050565b60006200040882620003f1565b91507fffffffffffffffffffffffffffffffffffffffffffffffffffffffffffffffff82036200043d576200043c620003c2565b5b600182019050919050565b61126280620004586000396000f3fe608060405234801561001057600080fd5b50600436106100935760003560e01c8063609ff1bd11610066578063609ff1bd1461011f5780639e7b8d611461013d578063a3ec138d14610159578063cceb68f51461018c578063e2ba53f0146101aa57610093565b80630121b93f14610098578063013cf08b146100b45780632e4176cf146100e55780635c19a95c14610103575b600080fd5b6100b260048036038101906100ad9190610b11565b6101c8565b005b6100ce60048036038101906100c99190610b11565b61030e565b6040516100dc929190610b66565b60405180910390f35b6100ed610342565b6040516100fa9190610bd0565b60405180910390f35b61011d60048036038101906101189190610c17565b610366565b005b610127610700565b6040516101349190610c44565b60405180910390f35b61015760048036038101906101529190610c17565b610788565b005b610173600480360381019061016e9190610c17565b61093f565b6040516101839493929190610c7a565b60405180910390f35b61019461099c565b6040516101a19190610dbb565b60405180910390f35b6101b2610a85565b6040516101bf9190610ddd565b60405180910390f35b6000600160003373ffffffffffffffffffffffffffffffffffffffff1673ffffffffffffffffffffffffffffffffffffffff16815260200190815260200160002090506000816000015403610252576040517f08c379a000000000000000000000000000000000000000000000000000000000815260040161024990610e55565b60405180910390fd5b8060010160009054906101000a900460ff16156102a4576040517f08c379a000000000000000000000000000000000000000000000000000000000815260040161029b90610ec1565b60405180910390fd5b60018160010160006101000a81548160ff0219169083151502179055508181600201819055508060000154600283815481106102e3576102e2610ee1565b5b906000526020600020906002020160010160008282546103039190610f3f565b925050819055505050565b6002818154811061031e57600080fd5b90600052602060002090600202016000915090508060000154908060010154905082565b60008054906101000a900473ffffffffffffffffffffffffffffffffffffffff1681565b6000600160003373ffffffffffffffffffffffffffffffffffffffff1673ffffffffffffffffffffffffffffffffffffffff16815260200190815260200160002090508060010160009054906101000a900460ff16156103fb576040517f08c379a00000000000000000000000000000000000000000000000000000000081526004016103f290610fbf565b60405180910390fd5b3373ffffffffffffffffffffffffffffffffffffffff168273ffffffffffffffffffffffffffffffffffffffff1603610469576040517f08c379a00000000000000000000000000000000000000000000000000000000081526004016104609061102b565b60405180910390fd5b5b600073ffffffffffffffffffffffffffffffffffffffff16600160008473ffffffffffffffffffffffffffffffffffffffff1673ffffffffffffffffffffffffffffffffffffffff16815260200190815260200160002060010160019054906101000a900473ffffffffffffffffffffffffffffffffffffffff1673ffffffffffffffffffffffffffffffffffffffff16146105d857600160008373ffffffffffffffffffffffffffffffffffffffff1673ffffffffffffffffffffffffffffffffffffffff16815260200190815260200160002060010160019054906101000a900473ffffffffffffffffffffffffffffffffffffffff1691503373ffffffffffffffffffffffffffffffffffffffff168273ffffffffffffffffffffffffffffffffffffffff16036105d3576040517f08c379a00000000000000000000000000000000000000000000000000000000081526004016105ca90611097565b60405180910390fd5b61046a565b60018160010160006101000a81548160ff021916908315150217905550818160010160016101000a81548173ffffffffffffffffffffffffffffffffffffffff021916908373ffffffffffffffffffffffffffffffffffffffff1602179055506000600160008473ffffffffffffffffffffffffffffffffffffffff1673ffffffffffffffffffffffffffffffffffffffff16815260200190815260200160002090508060010160009054906101000a900460ff16156106db57816000015460028260020154815481106106af576106ae610ee1565b5b906000526020600020906002020160010160008282546106cf9190610f3f565b925050819055506106fb565b81600001548160000160008282546106f39190610f3f565b925050819055505b505050565b6000806000905060005b60028054905081101561078357816002828154811061072c5761072b610ee1565b5b9060005260206000209060020201600101541115610770576002818154811061075857610757610ee1565b5b90600052602060002090600202016001015491508092505b808061077b906110b7565b91505061070a565b505090565b60008054906101000a900473ffffffffffffffffffffffffffffffffffffffff1673ffffffffffffffffffffffffffffffffffffffff163373ffffffffffffffffffffffffffffffffffffffff1614610816576040517f08c379a000000000000000000000000000000000000000000000000000000000815260040161080d90611171565b60405180910390fd5b600160008273ffffffffffffffffffffffffffffffffffffffff1673ffffffffffffffffffffffffffffffffffffffff16815260200190815260200160002060010160009054906101000a900460ff16156108a6576040517f08c379a000000000000000000000000000000000000000000000000000000000815260040161089d906111dd565b60405180910390fd5b6000600160008373ffffffffffffffffffffffffffffffffffffffff1673ffffffffffffffffffffffffffffffffffffffff16815260200190815260200160002060000154146108f557600080fd5b60018060008373ffffffffffffffffffffffffffffffffffffffff1673ffffffffffffffffffffffffffffffffffffffff1681526020019081526020016000206000018190555050565b60016020528060005260406000206000915090508060000154908060010160009054906101000a900460ff16908060010160019054906101000a900473ffffffffffffffffffffffffffffffffffffffff16908060020154905084565b6060600060028054905067ffffffffffffffff8111156109bf576109be6111fd565b5b6040519080825280602002602001820160405280156109f857816020015b6109e5610ab9565b8152602001906001900390816109dd5790505b50905060005b600280549050811015610a7d5760028181548110610a1f57610a1e610ee1565b5b906000526020600020906002020160405180604001604052908160008201548152602001600182015481525050828281518110610a5f57610a5e610ee1565b5b60200260200101819052508080610a75906110b7565b9150506109fe565b508091505090565b60006002610a91610700565b81548110610aa257610aa1610ee1565b5b906000526020600020906002020160000154905090565b604051806040016040528060008019168152602001600081525090565b600080fd5b6000819050919050565b610aee81610adb565b8114610af957600080fd5b50565b600081359050610b0b81610ae5565b92915050565b600060208284031215610b2757610b26610ad6565b5b6000610b3584828501610afc565b91505092915050565b6000819050919050565b610b5181610b3e565b82525050565b610b6081610adb565b82525050565b6000604082019050610b7b6000830185610b48565b610b886020830184610b57565b9392505050565b600073ffffffffffffffffffffffffffffffffffffffff82169050919050565b6000610bba82610b8f565b9050919050565b610bca81610baf565b82525050565b6000602082019050610be56000830184610bc1565b92915050565b610bf481610baf565b8114610bff57600080fd5b50565b600081359050610c1181610beb565b92915050565b600060208284031215610c2d57610c2c610ad6565b5b6000610c3b84828501610c02565b91505092915050565b6000602082019050610c596000830184610b57565b92915050565b60008115159050919050565b610c7481610c5f565b82525050565b6000608082019050610c8f6000830187610b57565b610c9c6020830186610c6b565b610ca96040830185610bc1565b610cb66060830184610b57565b95945050505050565b600081519050919050565b600082825260208201905092915050565b6000819050602082019050919050565b610cf481610b3e565b82525050565b610d0381610adb565b82525050565b604082016000820151610d1f6000850182610ceb565b506020820151610d326020850182610cfa565b50505050565b6000610d448383610d09565b60408301905092915050565b6000602082019050919050565b6000610d6882610cbf565b610d728185610cca565b9350610d7d83610cdb565b8060005b83811015610dae578151610d958882610d38565b9750610da083610d50565b925050600181019050610d81565b5085935050505092915050565b60006020820190508181036000830152610dd58184610d5d565b905092915050565b6000602082019050610df26000830184610b48565b92915050565b600082825260208201905092915050565b7f486173206e6f20726967687420746f20766f7465000000000000000000000000600082015250565b6000610e3f601483610df8565b9150610e4a82610e09565b602082019050919050565b60006020820190508181036000830152610e6e81610e32565b9050919050565b7f416c726561647920766f7465642e000000000000000000000000000000000000600082015250565b6000610eab600e83610df8565b9150610eb682610e75565b602082019050919050565b60006020820190508181036000830152610eda81610e9e565b9050919050565b7f4e487b7100000000000000000000000000000000000000000000000000000000600052603260045260246000fd5b7f4e487b7100000000000000000000000000000000000000000000000000000000600052601160045260246000fd5b6000610f4a82610adb565b9150610f5583610adb565b9250828201905080821115610f6d57610f6c610f10565b5b92915050565b7f596f7520616c726561647920766f7465642e0000000000000000000000000000600082015250565b6000610fa9601283610df8565b9150610fb482610f73565b602082019050919050565b60006020820190508181036000830152610fd881610f9c565b9050919050565b7f53656c662d64656c65676174696f6e20697320646973616c6c6f7765642e0000600082015250565b6000611015601e83610df8565b915061102082610fdf565b602082019050919050565b6000602082019050818103600083015261104481611008565b9050919050565b7f466f756e64206c6f6f7020696e2064656c65676174696f6e2e00000000000000600082015250565b6000611081601983610df8565b915061108c8261104b565b602082019050919050565b600060208201905081810360008301526110b081611074565b9050919050565b60006110c282610adb565b91507fffffffffffffffffffffffffffffffffffffffffffffffffffffffffffffffff82036110f4576110f3610f10565b5b600182019050919050565b7f4f6e6c79206368616972706572736f6e2063616e20676976652072696768742060008201527f746f20766f74652e000000000000000000000000000000000000000000000000602082015250565b600061115b602883610df8565b9150611166826110ff565b604082019050919050565b6000602082019050818103600083015261118a8161114e565b9050919050565b7f54686520766f74657220616c726561647920766f7465642e0000000000000000600082015250565b60006111c7601883610df8565b91506111d282611191565b602082019050919050565b600060208201905081810360008301526111f6816111ba565b9050919050565b7f4e487b7100000000000000000000000000000000000000000000000000000000600052604160045260246000fdfea26469706673582212202b4ceeccfd7a73b2d58d78944a387ef6e0a2d8a1e53401126d283ade581607f264736f6c63430008110033",
  "linkReferences": {},
  "deployedLinkReferences": {}
}